{
  "abi": [
    {
      "inputs": [
        {
          "internalType": "bytes[]",
          "name": "_g1s",
          "type": "bytes[]"
        },
        {
          "internalType": "bytes[]",
          "name": "_g2s",
          "type": "bytes[]"
        }
      ],
      "stateMutability": "nonpayable",
      "type": "constructor"
    },
    {
      "anonymous": false,
      "inputs": [
        {
          "indexed": false,
          "internalType": "uint256",
          "name": "submissionCount",
          "type": "uint256"
        }
      ],
      "name": "CeremonyUpdated",
      "type": "event"
    },
    {
      "inputs": [
        {
          "internalType": "bytes",
          "name": "prevG1",
          "type": "bytes"
        },
        {
          "internalType": "bytes",
          "name": "currG1",
          "type": "bytes"
        },
        {
          "internalType": "bytes",
          "name": "pi1",
          "type": "bytes"
        }
      ],
      "name": "hashRandomness",
      "outputs": [
        {
          "internalType": "bytes32",
          "name": "",
          "type": "bytes32"
        }
      ],
      "stateMutability": "pure",
      "type": "function"
    },
    {
      "inputs": [],
      "name": "numG1",
      "outputs": [
        {
          "internalType": "uint256",
          "name": "",
          "type": "uint256"
        }
      ],
      "stateMutability": "view",
      "type": "function"
    },
    {
      "inputs": [],
      "name": "numG2",
      "outputs": [
        {
          "internalType": "uint256",
          "name": "",
          "type": "uint256"
        }
      ],
      "stateMutability": "view",
      "type": "function"
    },
    {
      "inputs": [
        {
          "internalType": "bytes[]",
          "name": "_g1s",
          "type": "bytes[]"
        },
        {
          "internalType": "bytes[]",
          "name": "_g2s",
          "type": "bytes[]"
        },
        {
          "internalType": "bytes",
          "name": "_pi1",
          "type": "bytes"
        },
        {
          "internalType": "uint256",
          "name": "_pi2",
          "type": "uint256"
        }
      ],
      "name": "potUpdate",
      "outputs": [],
      "stateMutability": "nonpayable",
      "type": "function"
    },
    {
      "inputs": [],
      "name": "prevG1_0",
      "outputs": [
        {
          "internalType": "uint256",
          "name": "x",
          "type": "uint256"
        },
        {
          "internalType": "uint256",
          "name": "y",
          "type": "uint256"
        }
      ],
      "stateMutability": "view",
      "type": "function"
    },
    {
      "inputs": [],
      "name": "submissionCount",
      "outputs": [
        {
          "internalType": "uint256",
          "name": "",
          "type": "uint256"
        }
      ],
      "stateMutability": "view",
      "type": "function"
    },
    {
      "inputs": [
        {
          "components": [
            {
              "internalType": "uint256",
              "name": "x",
              "type": "uint256"
            },
            {
              "internalType": "uint256",
              "name": "y",
              "type": "uint256"
            }
          ],
          "internalType": "struct AltBn128.G1Point",
          "name": "existingG1",
          "type": "tuple"
        },
        {
          "components": [
            {
              "internalType": "uint256",
              "name": "x",
              "type": "uint256"
            },
            {
              "internalType": "uint256",
              "name": "y",
              "type": "uint256"
            }
          ],
          "internalType": "struct AltBn128.G1Point",
          "name": "updatedG1",
          "type": "tuple"
        },
        {
          "components": [
            {
              "internalType": "uint256",
              "name": "x",
              "type": "uint256"
            },
            {
              "internalType": "uint256",
              "name": "y",
              "type": "uint256"
            }
          ],
          "internalType": "struct AltBn128.G1Point",
          "name": "pi1",
          "type": "tuple"
        },
        {
          "internalType": "uint256",
          "name": "pi2",
          "type": "uint256"
        },
        {
          "internalType": "uint256",
          "name": "randomnessFr",
          "type": "uint256"
        }
      ],
      "name": "verifyDiscreteLog",
      "outputs": [
        {
          "internalType": "bool",
          "name": "",
          "type": "bool"
        }
      ],
      "stateMutability": "view",
      "type": "function"
    },
    {
      "inputs": [
        {
          "components": [
            {
              "internalType": "uint256",
              "name": "x",
              "type": "uint256"
            },
            {
              "internalType": "uint256",
              "name": "y",
              "type": "uint256"
            }
          ],
          "internalType": "struct AltBn128.G1Point",
          "name": "g1",
          "type": "tuple"
        }
      ],
      "name": "verifyNonZero",
      "outputs": [
        {
          "internalType": "bool",
          "name": "",
          "type": "bool"
        }
      ],
      "stateMutability": "pure",
      "type": "function"
    },
    {
      "inputs": [
        {
          "components": [
            {
              "internalType": "uint256",
              "name": "x",
              "type": "uint256"
            },
            {
              "internalType": "uint256",
              "name": "y",
              "type": "uint256"
            }
          ],
          "internalType": "struct AltBn128.G1Point[]",
          "name": "updatedG1s",
          "type": "tuple[]"
        },
        {
          "components": [
            {
              "components": [
                {
                  "internalType": "uint256",
                  "name": "x",
                  "type": "uint256"
                },
                {
                  "internalType": "uint256",
                  "name": "y",
                  "type": "uint256"
                }
              ],
              "internalType": "struct AltBn128.GfP2",
              "name": "x",
              "type": "tuple"
            },
            {
              "components": [
                {
                  "internalType": "uint256",
                  "name": "x",
                  "type": "uint256"
                },
                {
                  "internalType": "uint256",
                  "name": "y",
                  "type": "uint256"
                }
              ],
              "internalType": "struct AltBn128.GfP2",
              "name": "y",
              "type": "tuple"
            }
          ],
          "internalType": "struct AltBn128.G2Point",
          "name": "updatedG2",
          "type": "tuple"
        },
        {
          "internalType": "uint256",
          "name": "randomness",
          "type": "uint256"
        }
      ],
      "name": "verifyPairing",
      "outputs": [
        {
          "internalType": "bool",
          "name": "",
          "type": "bool"
        }
      ],
      "stateMutability": "view",
      "type": "function"
    }
  ],
  "bytecode": {
    "object": "0x60806040523480156200001157600080fd5b506040516200126c3803806200126c8339810160408190526200003491620002b1565b815160018190558151600255620000729083906000906200005957620000596200031b565b6020026020010151620000c160201b620006201760201c565b80516003556020908101516004556000546040519081527f0d7a303088b93f83a5ec33e6933b00c3deb75d66da04ecb674137ba10f187550910160405180910390a15050600160005562000331565b604080518082019091526000808252602082015281516040146200012b5760405162461bcd60e51b815260206004820152601760248201527f496e76616c6964204731206279746573206c656e677468000000000000000000604482015260640160405180910390fd5b5060208181015160409283015183518085019094529083529082015290565b634e487b7160e01b600052604160045260246000fd5b604051601f8201601f191681016001600160401b03811182821017156200018b576200018b6200014a565b604052919050565b6000601f8381840112620001a657600080fd5b825160206001600160401b0380831115620001c557620001c56200014a565b8260051b620001d683820162000160565b9384528681018301938381019089861115620001f157600080fd5b84890192505b85831015620002a457825184811115620002115760008081fd5b8901603f81018b13620002245760008081fd5b85810151858111156200023b576200023b6200014a565b6200024e818a01601f1916880162000160565b81815260408d81848601011115620002665760008081fd5b60005b8381101562000286578481018201518382018b0152890162000269565b505060009181018801919091528352509184019190840190620001f7565b9998505050505050505050565b60008060408385031215620002c557600080fd5b82516001600160401b0380821115620002dd57600080fd5b620002eb8683870162000193565b935060208501519150808211156200030257600080fd5b50620003118582860162000193565b9150509250929050565b634e487b7160e01b600052603260045260246000fd5b610f2b80620003416000396000f3fe608060405234801561001057600080fd5b50600436106100935760003560e01c80636ec02be9116100665780636ec02be9146100f35780637f60a388146100fc57806399f4b6fa1461010f5780639adc336014610132578063aac737e71461014757600080fd5b80630e2437531461009857806321e0baec146100c057806331b89cb4146100d35780634794c3b4146100ea575b600080fd5b6100ab6100a6366004610a61565b61015a565b60405190151581526020015b60405180910390f35b6100ab6100ce366004610aba565b6101ab565b6100dc60015481565b6040519081526020016100b7565b6100dc60025481565b6100dc60005481565b6100ab61010a366004610b41565b6101c7565b60035460045461011d919082565b604080519283526020830191909152016100b7565b610145610140366004610cf9565b610329565b005b6100dc610155366004610d89565b6105bc565b60008061016787856106a9565b9050600061017587856106a9565b9050600061018382886106f0565b8051845191925014801561019e575080602001518360200151145b9998505050505050505050565b8051600090158015906101c15750602082015115155b92915050565b600080826040516020016101dd91815260200190565b6040516020818303038152906040528051906020012060001c9050600061022f610229604080518082018252600080825260209182015281518083019092526001825260029082015290565b836106a9565b905060006102578760008151811061024957610249610e11565b6020026020010151846106a9565b905060005b87518110156103045760408051602080820187905282518083038201815291830190925280519101209381156102bb576102b86102b2848b85815181106102a5576102a5610e11565b60200260200101516106f0565b826106a9565b92505b600189516102c99190610e3d565b82146102f1576102ee6102e8858b85815181106102a5576102a5610e11565b866106a9565b93505b50806102fc81610e50565b91505061025c565b50600061030f61073b565b905061031d838884846107fb565b98975050505050505050565b60015484511461033857600080fd5b60025483511461034757600080fd5b6000845167ffffffffffffffff811115610363576103636109c1565b6040519080825280602002602001820160405280156103a857816020015b60408051808201909152600080825260208201528152602001906001900390816103815790505b50905060005b8151811015610409576103d98682815181106103cc576103cc610e11565b6020026020010151610620565b8282815181106103eb576103eb610e11565b6020026020010181905250808061040190610e50565b9150506103ae565b50600061042f8560008151811061042257610422610e11565b60200260200101516108a2565b9050600061043c85610620565b60408051808201909152600354815260045460208201529091506000907f30644e72e131a029b85045b68181585d2833e84879b9709143e1f593f0000001906104a99061048890610943565b8a60008151811061049b5761049b610e11565b6020026020010151896105bc565b6104b39190610e69565b604080518082019091526003548152600454602082015285519192506104f49186906000906104e4576104e4610e11565b602002602001015184888561015a565b6104fd57600080fd5b6105088484836101c7565b61051157600080fd5b6105348460008151811061052757610527610e11565b60200260200101516101ab565b61053d57600080fd5b8360008151811061055057610550610e11565b60209081029190910181015180516003558101516004556000546040519081527f0d7a303088b93f83a5ec33e6933b00c3deb75d66da04ecb674137ba10f187550910160405180910390a160016000808282546105ad9190610e8b565b90915550505050505050505050565b600083516040146105cc57600080fd5b82516040146105da57600080fd5b81516040146105e857600080fd5b60008484846040516020016105ff93929190610ece565b60408051808303601f19018152919052805160209091012095945050505050565b6040805180820190915260008082526020820152815160401461068a5760405162461bcd60e51b815260206004820152601760248201527f496e76616c6964204731206279746573206c656e67746800000000000000000060448201526064015b60405180910390fd5b5060208181015160409283015183518085019094529083529082015290565b604080518082019091526000808252602082015260405183518152602084015160208201528260408201526040826060836007600019fa6106e957600080fd5b5092915050565b6040805180820190915260008082526020820152604051835181526020840151602082015282516040820152602083015160608201526040826080836006600019fa6106e957600080fd5b61074361097d565b50604080516080810182527f198e9393920d483a7260bfb731fb5d25f1aa493335a9e71297e485b7aef312c28183019081527f1800deef121f1e76426a00665e5c4479674322d4f75edadd46debd5cd992f6ed6060830152815281518083019092527f275dc4a288d1afb3cbb1ac09187524c7db36395df7be3b99e673b13a075a65ec82527f1d9befcd05a5323e6da4d435f3b617cdb3af83285c2df711ef39c01571827f9d60208381019190915281019190915290565b6000806040516020810187518152602088015160208201528651805160408301526020810151606083015250602087015180516080830152602081015160a083015250855160c0820152602086015160e08201528451805161010083015260208101516101208301525060208501518051610140830152602081015161016083015250602082610180836008600019fa61089457600080fd5b505115159695505050505050565b6108aa61097d565b81516080146108fb5760405162461bcd60e51b815260206004820152601760248201527f496e76616c6964204732206279746573206c656e6774680000000000000000006044820152606401610681565b50602081810151604080840151606080860151608096870151845197880185528785019586529187019290925292855281518083019092528152808301919091529082015290565b6040805181815260608181018352916000919060208201818036833750508451602095860151958301525060408101939093525090919050565b604080516080810182526000918101828152606082019290925290819081526020016109bc604051806040016040528060008152602001600081525090565b905290565b634e487b7160e01b600052604160045260246000fd5b6040805190810167ffffffffffffffff811182821017156109fa576109fa6109c1565b60405290565b604051601f8201601f1916810167ffffffffffffffff81118282101715610a2957610a296109c1565b604052919050565b600060408284031215610a4357600080fd5b610a4b6109d7565b9050813581526020820135602082015292915050565b60008060008060006101008688031215610a7a57600080fd5b610a848787610a31565b9450610a938760408801610a31565b9350610aa28760808801610a31565b9497939650939460c0810135945060e0013592915050565b600060408284031215610acc57600080fd5b610ad68383610a31565b9392505050565b600067ffffffffffffffff821115610af757610af76109c1565b5060051b60200190565b600060808284031215610b1357600080fd5b610b1b6109d7565b9050610b278383610a31565b8152610b368360408401610a31565b602082015292915050565b600080600060c08486031215610b5657600080fd5b833567ffffffffffffffff811115610b6d57600080fd5b8401601f81018613610b7e57600080fd5b80356020610b93610b8e83610add565b610a00565b82815260069290921b83018101918181019089841115610bb257600080fd5b938201935b83851015610bdb57610bc98a86610a31565b82528282019150604085019450610bb7565b9650610beb905088888301610b01565b945050505060a084013590509250925092565b600082601f830112610c0f57600080fd5b813567ffffffffffffffff811115610c2957610c296109c1565b610c3c601f8201601f1916602001610a00565b818152846020838601011115610c5157600080fd5b816020850160208301376000918101602001919091529392505050565b600082601f830112610c7f57600080fd5b81356020610c8f610b8e83610add565b82815260059290921b84018101918181019086841115610cae57600080fd5b8286015b84811015610cee57803567ffffffffffffffff811115610cd25760008081fd5b610ce08986838b0101610bfe565b845250918301918301610cb2565b509695505050505050565b60008060008060808587031215610d0f57600080fd5b843567ffffffffffffffff80821115610d2757600080fd5b610d3388838901610c6e565b95506020870135915080821115610d4957600080fd5b610d5588838901610c6e565b94506040870135915080821115610d6b57600080fd5b50610d7887828801610bfe565b949793965093946060013593505050565b600080600060608486031215610d9e57600080fd5b833567ffffffffffffffff80821115610db657600080fd5b610dc287838801610bfe565b94506020860135915080821115610dd857600080fd5b610de487838801610bfe565b93506040860135915080821115610dfa57600080fd5b50610e0786828701610bfe565b9150509250925092565b634e487b7160e01b600052603260045260246000fd5b634e487b7160e01b600052601160045260246000fd5b818103818111156101c1576101c1610e27565b600060018201610e6257610e62610e27565b5060010190565b600082610e8657634e487b7160e01b600052601260045260246000fd5b500690565b808201808211156101c1576101c1610e27565b6000815160005b81811015610ebf5760208185018101518683015201610ea5565b50600093019283525090919050565b6000610eec610ee6610ee08488610e9e565b86610e9e565b84610e9e565b9594505050505056fea2646970667358221220a5b6470844c44465a918c8861c2f43c89fff6b3e3276bca7703ebdd3a672814a64736f6c63430008100033",
    "linkReferences": {}
  },
  "methodIdentifiers": {
    "hashRandomness(bytes,bytes,bytes)": "aac737e7",
    "numG1()": "31b89cb4",
    "numG2()": "4794c3b4",
    "potUpdate(bytes[],bytes[],bytes,uint256)": "9adc3360",
    "prevG1_0()": "99f4b6fa",
    "submissionCount()": "6ec02be9",
    "verifyDiscreteLog((uint256,uint256),(uint256,uint256),(uint256,uint256),uint256,uint256)": "0e243753",
    "verifyNonZero((uint256,uint256))": "21e0baec",
    "verifyPairing((uint256,uint256)[],((uint256,uint256),(uint256,uint256)),uint256)": "7f60a388"
  },
  "id": 0
}