{
  "abi": [
    {
      "inputs": [
        {
          "internalType": "bytes[]",
          "name": "_g1s",
          "type": "bytes[]"
        },
        {
          "internalType": "bytes[]",
          "name": "_g2s",
          "type": "bytes[]"
        }
      ],
      "stateMutability": "nonpayable",
      "type": "constructor"
    },
    {
      "anonymous": false,
      "inputs": [
        {
          "indexed": false,
          "internalType": "uint256",
          "name": "submissionCount",
          "type": "uint256"
        }
      ],
      "name": "CeremonyUpdated",
      "type": "event"
    },
    {
      "inputs": [
        {
          "internalType": "bytes",
          "name": "prevG1",
          "type": "bytes"
        },
        {
          "internalType": "bytes",
          "name": "currG1",
          "type": "bytes"
        },
        {
          "internalType": "bytes",
          "name": "pi1",
          "type": "bytes"
        }
      ],
      "name": "hashRandomness",
      "outputs": [
        {
          "internalType": "bytes32",
          "name": "",
          "type": "bytes32"
        }
      ],
      "stateMutability": "pure",
      "type": "function"
    },
    {
      "inputs": [],
      "name": "numG1",
      "outputs": [
        {
          "internalType": "uint256",
          "name": "",
          "type": "uint256"
        }
      ],
      "stateMutability": "view",
      "type": "function"
    },
    {
      "inputs": [],
      "name": "numG2",
      "outputs": [
        {
          "internalType": "uint256",
          "name": "",
          "type": "uint256"
        }
      ],
      "stateMutability": "view",
      "type": "function"
    },
    {
      "inputs": [
        {
          "internalType": "bytes[]",
          "name": "_g1s",
          "type": "bytes[]"
        },
        {
          "internalType": "bytes[]",
          "name": "_g2s",
          "type": "bytes[]"
        },
        {
          "internalType": "bytes",
          "name": "_pi1",
          "type": "bytes"
        },
        {
          "internalType": "uint256",
          "name": "_pi2",
          "type": "uint256"
        }
      ],
      "name": "potUpdate",
      "outputs": [],
      "stateMutability": "nonpayable",
      "type": "function"
    },
    {
      "inputs": [],
      "name": "prevG1_0",
      "outputs": [
        {
          "internalType": "uint256",
          "name": "x",
          "type": "uint256"
        },
        {
          "internalType": "uint256",
          "name": "y",
          "type": "uint256"
        }
      ],
      "stateMutability": "view",
      "type": "function"
    },
    {
      "inputs": [],
      "name": "submissionCount",
      "outputs": [
        {
          "internalType": "uint256",
          "name": "",
          "type": "uint256"
        }
      ],
      "stateMutability": "view",
      "type": "function"
    },
    {
      "inputs": [
        {
          "components": [
            {
              "internalType": "uint256",
              "name": "x",
              "type": "uint256"
            },
            {
              "internalType": "uint256",
              "name": "y",
              "type": "uint256"
            }
          ],
          "internalType": "struct AltBn128.G1Point",
          "name": "existingG1",
          "type": "tuple"
        },
        {
          "components": [
            {
              "internalType": "uint256",
              "name": "x",
              "type": "uint256"
            },
            {
              "internalType": "uint256",
              "name": "y",
              "type": "uint256"
            }
          ],
          "internalType": "struct AltBn128.G1Point",
          "name": "updatedG1",
          "type": "tuple"
        },
        {
          "components": [
            {
              "internalType": "uint256",
              "name": "x",
              "type": "uint256"
            },
            {
              "internalType": "uint256",
              "name": "y",
              "type": "uint256"
            }
          ],
          "internalType": "struct AltBn128.G1Point",
          "name": "pi1",
          "type": "tuple"
        },
        {
          "internalType": "uint256",
          "name": "pi2",
          "type": "uint256"
        },
        {
          "internalType": "uint256",
          "name": "randomnessFr",
          "type": "uint256"
        }
      ],
      "name": "verifyDiscreteLog",
      "outputs": [
        {
          "internalType": "bool",
          "name": "",
          "type": "bool"
        }
      ],
      "stateMutability": "view",
      "type": "function"
    },
    {
      "inputs": [
        {
          "components": [
            {
              "internalType": "uint256",
              "name": "x",
              "type": "uint256"
            },
            {
              "internalType": "uint256",
              "name": "y",
              "type": "uint256"
            }
          ],
          "internalType": "struct AltBn128.G1Point",
          "name": "g1",
          "type": "tuple"
        }
      ],
      "name": "verifyNonZero",
      "outputs": [
        {
          "internalType": "bool",
          "name": "",
          "type": "bool"
        }
      ],
      "stateMutability": "pure",
      "type": "function"
    },
    {
      "inputs": [
        {
          "components": [
            {
              "internalType": "uint256",
              "name": "x",
              "type": "uint256"
            },
            {
              "internalType": "uint256",
              "name": "y",
              "type": "uint256"
            }
          ],
          "internalType": "struct AltBn128.G1Point[]",
          "name": "updatedG1s",
          "type": "tuple[]"
        },
        {
          "components": [
            {
              "components": [
                {
                  "internalType": "uint256",
                  "name": "x",
                  "type": "uint256"
                },
                {
                  "internalType": "uint256",
                  "name": "y",
                  "type": "uint256"
                }
              ],
              "internalType": "struct AltBn128.GfP2",
              "name": "x",
              "type": "tuple"
            },
            {
              "components": [
                {
                  "internalType": "uint256",
                  "name": "x",
                  "type": "uint256"
                },
                {
                  "internalType": "uint256",
                  "name": "y",
                  "type": "uint256"
                }
              ],
              "internalType": "struct AltBn128.GfP2",
              "name": "y",
              "type": "tuple"
            }
          ],
          "internalType": "struct AltBn128.G2Point",
          "name": "updatedG2",
          "type": "tuple"
        },
        {
          "internalType": "uint256",
          "name": "randomness",
          "type": "uint256"
        }
      ],
      "name": "verifyPairing",
      "outputs": [
        {
          "internalType": "bool",
          "name": "",
          "type": "bool"
        }
      ],
      "stateMutability": "view",
      "type": "function"
    }
  ],
  "bytecode": {
    "object": "0x60806040523480156200001157600080fd5b506040516200138d3803806200138d8339810160408190526200003491620002c0565b80516001146200004357600080fd5b815160018190558151600255620000819083906000906200006857620000686200032a565b6020026020010151620000d060201b620006671760201c565b80516003556020908101516004556000546040519081527f0d7a303088b93f83a5ec33e6933b00c3deb75d66da04ecb674137ba10f187550910160405180910390a15050600160005562000340565b604080518082019091526000808252602082015281516040146200013a5760405162461bcd60e51b815260206004820152601760248201527f496e76616c6964204731206279746573206c656e677468000000000000000000604482015260640160405180910390fd5b5060208181015160409283015183518085019094529083529082015290565b634e487b7160e01b600052604160045260246000fd5b604051601f8201601f191681016001600160401b03811182821017156200019a576200019a62000159565b604052919050565b6000601f8381840112620001b557600080fd5b825160206001600160401b0380831115620001d457620001d462000159565b8260051b620001e58382016200016f565b93845286810183019383810190898611156200020057600080fd5b84890192505b85831015620002b357825184811115620002205760008081fd5b8901603f81018b13620002335760008081fd5b85810151858111156200024a576200024a62000159565b6200025d818a01601f191688016200016f565b81815260408d81848601011115620002755760008081fd5b60005b8381101562000295578481018201518382018b0152890162000278565b50506000918101880191909152835250918401919084019062000206565b9998505050505050505050565b60008060408385031215620002d457600080fd5b82516001600160401b0380821115620002ec57600080fd5b620002fa86838701620001a2565b935060208501519150808211156200031157600080fd5b506200032085828601620001a2565b9150509250929050565b634e487b7160e01b600052603260045260246000fd5b61103d80620003506000396000f3fe608060405234801561001057600080fd5b50600436106100935760003560e01c80636ec02be9116100665780636ec02be9146100f35780637f60a388146100fc57806399f4b6fa1461010f5780639adc336014610132578063aac737e71461014757600080fd5b80630e2437531461009857806321e0baec146100c057806331b89cb4146100d35780634794c3b4146100ea575b600080fd5b6100ab6100a6366004610aa8565b61015a565b60405190151581526020015b60405180910390f35b6100ab6100ce366004610b01565b6101ab565b6100dc60015481565b6040519081526020016100b7565b6100dc60025481565b6100dc60005481565b6100ab61010a366004610b88565b6101c7565b60035460045461011d919082565b604080519283526020830191909152016100b7565b610145610140366004610d40565b610352565b005b6100dc610155366004610dd0565b610603565b60008061016787856106f0565b9050600061017587856106f0565b905060006101838288610737565b8051845191925014801561019e575080602001518360200151145b9998505050505050505050565b8051600090158015906101c15750602082015115155b92915050565b604080516020808201849052600082840181905283518084038501815260609093019093528151910120819061020c90600080516020610fe883398151915290610e58565b905060008560008151811061022357610223610e7a565b602090810291909101015190506001805b600188516102429190610ea6565b81101561029d57600080516020610fe8833981519152848309915061028961028389838151811061027557610275610e7a565b6020026020010151846106f0565b84610737565b92508061029581610eb9565b915050610234565b50600080516020610fe8833981519152838209905060006102f26102e3604080518082018252600080825260209182015281518083019092526001825260029082015290565b6102ed85876106f0565b610737565b9050600061032a846102ed8b60018d5161030c9190610ea6565b8151811061031c5761031c610e7a565b6020026020010151866106f0565b90506000610336610782565b9050610344838a8484610842565b9a9950505050505050505050565b60015484511461036157600080fd5b60025483511461037057600080fd5b6040805180820190915260035481526004546020820152600090600080516020610fe8833981519152906103c8906103a7906108e9565b876000815181106103ba576103ba610e7a565b602002602001015186610603565b6103d29190610e58565b9050600085856040516020016103e9929190610f63565b6040516020818303038152906040528051906020012060001c90506000865167ffffffffffffffff81111561042057610420610a08565b60405190808252806020026020018201604052801561046557816020015b604080518082019091526000808252602082015281526020019060019003908161043e5790505b50905060005b81518110156104c65761049688828151811061048957610489610e7a565b6020026020010151610667565b8282815181106104a8576104a8610e7a565b602002602001018190525080806104be90610eb9565b91505061046b565b5060006104ec876000815181106104df576104df610e7a565b6020026020010151610923565b905060006104f987610667565b6040805180820190915260035481526004546020820152845191925061053a91859060009061052a5761052a610e7a565b602002602001015183898961015a565b61054357600080fd5b61054e8383866101c7565b61055757600080fd5b61057a8360008151811061056d5761056d610e7a565b60200260200101516101ab565b61058357600080fd5b8260008151811061059657610596610e7a565b60209081029190910181015180516003558101516004556000546040519081527f0d7a303088b93f83a5ec33e6933b00c3deb75d66da04ecb674137ba10f187550910160405180910390a160016000808282546105f39190610f91565b9091555050505050505050505050565b6000835160401461061357600080fd5b825160401461062157600080fd5b815160401461062f57600080fd5b600084848460405160200161064693929190610fa4565b60408051808303601f19018152919052805160209091012095945050505050565b604080518082019091526000808252602082015281516040146106d15760405162461bcd60e51b815260206004820152601760248201527f496e76616c6964204731206279746573206c656e67746800000000000000000060448201526064015b60405180910390fd5b5060208181015160409283015183518085019094529083529082015290565b604080518082019091526000808252602082015260405183518152602084015160208201528260408201526040826060836007600019fa61073057600080fd5b5092915050565b6040805180820190915260008082526020820152604051835181526020840151602082015282516040820152602083015160608201526040826080836006600019fa61073057600080fd5b61078a6109c4565b50604080516080810182527f198e9393920d483a7260bfb731fb5d25f1aa493335a9e71297e485b7aef312c28183019081527f1800deef121f1e76426a00665e5c4479674322d4f75edadd46debd5cd992f6ed6060830152815281518083019092527f275dc4a288d1afb3cbb1ac09187524c7db36395df7be3b99e673b13a075a65ec82527f1d9befcd05a5323e6da4d435f3b617cdb3af83285c2df711ef39c01571827f9d60208381019190915281019190915290565b6000806040516020810187518152602088015160208201528651805160408301526020810151606083015250602087015180516080830152602081015160a083015250855160c0820152602086015160e08201528451805161010083015260208101516101208301525060208501518051610140830152602081015161016083015250602082610180836008600019fa6108db57600080fd5b505115159695505050505050565b6040805181815260608181018352916000919060208201818036833750508451602095860151958301525060408101939093525090919050565b61092b6109c4565b815160801461097c5760405162461bcd60e51b815260206004820152601760248201527f496e76616c6964204732206279746573206c656e67746800000000000000000060448201526064016106c8565b50602081810151604080840151606080860151608096870151845197880185528785019586529187019290925292855281518083019092528152808301919091529082015290565b60408051608081018252600091810182815260608201929092529081908152602001610a03604051806040016040528060008152602001600081525090565b905290565b634e487b7160e01b600052604160045260246000fd5b6040805190810167ffffffffffffffff81118282101715610a4157610a41610a08565b60405290565b604051601f8201601f1916810167ffffffffffffffff81118282101715610a7057610a70610a08565b604052919050565b600060408284031215610a8a57600080fd5b610a92610a1e565b9050813581526020820135602082015292915050565b60008060008060006101008688031215610ac157600080fd5b610acb8787610a78565b9450610ada8760408801610a78565b9350610ae98760808801610a78565b9497939650939460c0810135945060e0013592915050565b600060408284031215610b1357600080fd5b610b1d8383610a78565b9392505050565b600067ffffffffffffffff821115610b3e57610b3e610a08565b5060051b60200190565b600060808284031215610b5a57600080fd5b610b62610a1e565b9050610b6e8383610a78565b8152610b7d8360408401610a78565b602082015292915050565b600080600060c08486031215610b9d57600080fd5b833567ffffffffffffffff811115610bb457600080fd5b8401601f81018613610bc557600080fd5b80356020610bda610bd583610b24565b610a47565b82815260069290921b83018101918181019089841115610bf957600080fd5b938201935b83851015610c2257610c108a86610a78565b82528282019150604085019450610bfe565b9650610c32905088888301610b48565b945050505060a084013590509250925092565b600082601f830112610c5657600080fd5b813567ffffffffffffffff811115610c7057610c70610a08565b610c83601f8201601f1916602001610a47565b818152846020838601011115610c9857600080fd5b816020850160208301376000918101602001919091529392505050565b600082601f830112610cc657600080fd5b81356020610cd6610bd583610b24565b82815260059290921b84018101918181019086841115610cf557600080fd5b8286015b84811015610d3557803567ffffffffffffffff811115610d195760008081fd5b610d278986838b0101610c45565b845250918301918301610cf9565b509695505050505050565b60008060008060808587031215610d5657600080fd5b843567ffffffffffffffff80821115610d6e57600080fd5b610d7a88838901610cb5565b95506020870135915080821115610d9057600080fd5b610d9c88838901610cb5565b94506040870135915080821115610db257600080fd5b50610dbf87828801610c45565b949793965093946060013593505050565b600080600060608486031215610de557600080fd5b833567ffffffffffffffff80821115610dfd57600080fd5b610e0987838801610c45565b94506020860135915080821115610e1f57600080fd5b610e2b87838801610c45565b93506040860135915080821115610e4157600080fd5b50610e4e86828701610c45565b9150509250925092565b600082610e7557634e487b7160e01b600052601260045260246000fd5b500690565b634e487b7160e01b600052603260045260246000fd5b634e487b7160e01b600052601160045260246000fd5b818103818111156101c1576101c1610e90565b600060018201610ecb57610ecb610e90565b5060010190565b60005b83811015610eed578181015183820152602001610ed5565b50506000910152565b600081518084526020808501808196508360051b8101915082860160005b85811015610f5657828403895281518051808652610f3781888801898501610ed2565b99860199601f01601f1916949094018501935090840190600101610f14565b5091979650505050505050565b604081526000610f766040830185610ef6565b8281036020840152610f888185610ef6565b95945050505050565b808201808211156101c1576101c1610e90565b60008451610fb6818460208901610ed2565b845190830190610fca818360208901610ed2565b8451910190610fdd818360208801610ed2565b019594505050505056fe30644e72e131a029b85045b68181585d2833e84879b9709143e1f593f0000001a2646970667358221220e5273c09c3fd9ef3b572d559d5c355dcce23caaa55e06802bbd24afa5b9c3e0264736f6c63430008100033",
    "linkReferences": {}
  },
  "methodIdentifiers": {
    "hashRandomness(bytes,bytes,bytes)": "aac737e7",
    "numG1()": "31b89cb4",
    "numG2()": "4794c3b4",
    "potUpdate(bytes[],bytes[],bytes,uint256)": "9adc3360",
    "prevG1_0()": "99f4b6fa",
    "submissionCount()": "6ec02be9",
    "verifyDiscreteLog((uint256,uint256),(uint256,uint256),(uint256,uint256),uint256,uint256)": "0e243753",
    "verifyNonZero((uint256,uint256))": "21e0baec",
    "verifyPairing((uint256,uint256)[],((uint256,uint256),(uint256,uint256)),uint256)": "7f60a388"
  },
  "id": 0
}